S01C00004156525F5744545F4578616D706C655F436F64652E73726563CC
S113000045C000006CC000006AC0000068C0000069
S113001066C0000064C0000062C0000060C0000050
S11300205EC000005CC000005AC0000058C0000060
S113003056C0000054C0000052C0000050C0000070
S11300404EC000004CC000004AC0000048C0000080
S113005046C0000044C0000042C0000040C0000090
S11300603EC000003CC000003AC0000038C00000A0
S113007036C0000034C0000032C0000030C00000B0
S11300802EC000002CC000002AC0000011241FBE96
S1130090CFEFD0E4DEBFCDBF14BE0FB6F894A89561
S11300A080916000886180936000109260000FBEB0
S11300B012E0A0E0B1E0EAE7FAE000E00BBF02C022
S11300C007900D92A632B107D9F722E0A6E2B2E07A
S11300D001C01D92AE32B207E1F71FD1CCC490CF5C
S11300E085E08093B800E9EBF0E080818C7F808329
S11300F00895CF93DF93ECEBF0E034EAA9EBB0E0A2
S1130100CBEBD0E050EA44E8308320812223ECF7A3
S11301102C91287F283009F046C0588340832081E1
S11301202223ECF72C91287F283171F79093BB00A0
S113013094E89093BC00ECEBF0E090819923ECF709
S11301409091B900987F983281F58093BB0084E840
S11301508093BC00ECEBF0E080818823ECF7809185
S1130160B900887F883219F56093BB0084E88093D6
S1130170BC00ECEBF0E080818823ECF78091B900BF
S1130180887F8832B1F484E98093BC00ECEBF0E022
S1130190808184FDFDCF8FE697E10197F1F700C0E0
S11301A0000081E007C080E005C080E003C080E07B
S11301B001C080E0DF91CF910895CF93DF93ECEB02
S11301C0F0E034EAA9EBB0E0CBEBD0E050EA44E84D
S11301D0308320812223ECF72C91287F283009F0EA
S11301E05DC05883408320812223ECF72C91287F23
S11301F0283171F79093BB0094E89093BC00ECEB2A
S1130200F0E090819923ECF79091B900987F9832AF
S113021009F046C08093BB0084E88093BC00ECEBFB
S1130220F0E080818823ECF78091B900887F8832E0
S1130230C9F584EA8093BC00ECEBF0E0808188236C
S1130240ECF78091B900887F803171F581EA809361
S1130250BB0084E88093BC00ECEBF0E08081882351
S1130260ECF78091B900887F803401F584E88093AD
S1130270BC00ECEBF0E080818823ECF78091B900BE
S1130280887F8835A9F48091BB0094E99093BC00E1
S1130290ECEBF0E0908194FDFDCF0BC080E009C051
S11302A080E007C080E005C080E003C080E001C0BA
S11302B080E0DF91CF9108955D9A2FE78AE196E07F
S11302C0215080409040E1F700C000005D982FE786
S11302D08AE196E0215080409040E1F700C00000A0
S11302E00895F894A895E0E6F0E080818861808321
S11302F089E2808378940895559A0D9AF2DF159ACD
S11303002FEF84E39CE0215080409040E1F700C04F
S113031000001598A895D0CF08958CE090E096D071
S11303208CE090E085D0E8DFE8E2F2E08EE091E056
S1130330918380838CE191E09383828378945D98A8
S1130340A8958AE291E0BAD081EE94E00197F1F7A2
S113035000C0000080E691E0B1D0C2DE80E090E011
S11303600197F1F788E290E09093270280932602A8
S1130370FC01E852FF4F6081BCDE8091260290911F
S113038027020196909327028093260285339105D4
S11303907CF38FE493EC0197F1F700C00000A0DE3A
S11303A080E090E00197F1F78CE290E006DFC82F3F
S11303B0A895823389F480DFA8957EDFA8951F92E3
S11303C082E38F938DE791E09F938F9364D00F9096
S11303D00F900F900F900CC06FDF1F92CF9388EA9D
S11303E091E09F938F9357D00F900F900F900F90A1
S11303F0A89585ED91E062D08BEE91E05FD0A89551
S1130400C0E0D0E009E112E021969FE32DE083E013
S1130410915020408040E1F700C00000DF93CF936B
S11304201F930F9338D00F900F900F900F90ECCF35
S11304309093C5008093C40088E18093C10086E056
S11304408093C20082E08093C00008959093CD0011
S11304508093CC0088E18093C90086E08093CA0031
S113046082E08093C8000895CF93C82F8A3011F496
S11304708DE0FADFE0ECF0E0808185FFFDCFC093F2
S1130480C600CF910895E8ECF0E080818823ECF772
S11304908091CE000895CF93DF93CDB7DEB7AE0140
S11304A04B5F5F4FFA0161917191AF0180912A0214
S11304B090912B0233D0DF91CF9108950F931F9326
S11304C0CF93DF93E0912A02F0912B02238121FF45
S11304D01BC08C01D0E0C0E0F80181918F016091D4
S11304E02A0270912B02DB011896ED91FC91199769
S11304F0882331F00995892B79F3DFEFCFEFECCF27
S11305008AE00995892B19F08FEF9FEF02C08D2F98
S11305109C2FDF91CF911F910F9108952F923F92BD
S11305204F925F926F927F928F929F92AF92BF92FF
S1130530CF92DF92EF92FF920F931F93CF93DF93AB
S1130540CDB7DEB72B970FB6F894DEBF0FBECDBF85
S11305506C017B018A01FC0117821682838181FF71
S1130560BFC1CE0101963C01F6019381F70193FDD1
S1130570859193FF81917F01882309F4ADC1853270
S113058039F493FD859193FF81917F01853221F4A4
S1130590B60190E0D6D1E8CF912C212C312CFFE18B
S11305A0F315D8F08B3279F038F4803279F0833255
S11305B0A1F4232D20611DC08D3261F0803369F4D4
S11305C0232D216016C0832D8260382EE32DE46034
S11305D03E2E2AC0F32DF8601DC037FC2DC020ED3F
S11305E0280F2A3040F08E32B9F436FC75C1232D21
S11305F02064322E19C036FE06C08AE0989E200D73
S11306001124922E11C0EAE02E9E200D1124222ED8
S1130610F32DF0623F2E08C08C3621F4832D8068C0
S1130620382E02C0883641F4F70193FD859193FF7B
S113063081917F018111B3CF982F9F7D9554933081
S113064028F40C5F1F4F9FE399830DC0833631F06C
S1130650833771F0833509F055C020C0F8018081DB
S113066089830E5F1F4F88248394912C530112C0F9
S11306702801F2E04F0E511CF801A080B18036FE33
S113068003C0692D70E002C06FEF7FEFC5014ED14A
S11306904C018201F32DFF773F2E15C0280122E083
S11306A0420E511CF801A080B18036FE03C0692DB2
S11306B070E002C06FEF7FEFC5012DD14C01F32D27
S11306C0F0683F2E820133FC19C0822D90E0881619
S11306D09906A0F4B60180E290E033D12A94F5CFD4
S11306E0F50137FC859137FE81915F01B60190E0F9
S11306F028D121102A9421E0821A910881149104AE
S113070079F7E1C0843611F0893639F5F80137FEFE
S113071007C060817181828193810C5F1F4F08C083
S113072060817181072E000C880B990B0E5F1F4F9F
S1130730F32DFF763F2E97FF09C090958095709515
S113074061957F4F8F4F9F4FF0683F2E2AE030E036
S1130750A30133D1882E861844C0853731F4232D64
S11307602F7EB22E2AE030E025C0932D997FB92E3A
S11307708F36C1F018F4883579F0AEC0803719F09F
S1130780883721F0A9C0E92FE061BE2EB4FE0DC068
S1130790FB2DF460BF2E09C034FE0AC0292F266049
S11307A0B22E06C028E030E005C020E130E002C0EF
S11307B020E132E0F801B7FE07C0608171818281D7
S11307C093810C5F1F4F06C06081718180E090E0CF
S11307D00E5F1F4FA301F1D0882E8618FB2DFF77E3
S11307E03F2E36FE0DC0232D2E7FA22E891458F4E1
S11307F034FE0BC032FC09C0832D8E7EA82E05C0AA
S1130800B82CA32C03C0B82C01C0B92CA4FE0FC073
S1130810FE01E80DF11D8081803321F49A2D997E2B
S1130820A92E09C0A2FE06C0B394B39404C08A2DB5
S1130830867809F0B394A3FC10C0A0FE06C0B214DD
S113084080F4280C922C9B180DC0B21458F4B601F5
S113085080E290E076D0B394F8CFB21418F42B1859
S113086002C0982C212CA4FE0FC0B60180E390E0B6
S113087068D0A2FE16C0A1FC03C088E790E002C0C5
S113088088E590E0B6010CC08A2D867851F0A1FE6F
S113089002C08BE201C080E2A7FC8DE2B60190E0C9
S11308A050D0891430F4B60180E390E04AD09A9491
S11308B0F8CF8A94F301E80DF11D8081B60190E030
S11308C040D08110F6CF222009F44ECEB60180E24A
S11308D090E037D02A94F7CFF6018681978102C041
S11308E08FEF9FEF2B960FB6F894DEBF0FBECDBFF0
S11308F0DF91CF911F910F91FF90EF90DF90CF90F8
S1130900BF90AF909F908F907F906F905F904F902B
S11309103F902F900895FC010590615070400110A4
S1130920D8F7809590958E0F9F1F0895FC01615014
S1130930704001900110D8F7809590958E0F9F1FFD
S113094008950F931F93CF93DF93FB01238121FD20
S113095003C08FEF9FEF2CC022FF16C04681578142
S1130960248135814217530744F4A081B1819D014C
S11309702F5F3F4F318320838C93268137812F5FF4
S11309803F4F3783268314C08B01EC01FB010084A5
S1130990F185E02D0995892BE1F6D80116968D9104
S11309A09C911797019617969C938E931697CE0158
S11309B0DF91CF911F910F910895FA01AA27283052
S11309C051F1203181F1E8946F936E7F6E5F7F4F18
S11309D08F4F9F4FAF4FB1E03ED0B4E03CD0670F94
S11309E0781F891F9A1FA11D680F791F8A1F911DE7
S11309F0A11D6A0F711D811D911DA11D20D009F437
S1130A0068943F912AE0269F11243019305D319378
S1130A10DEF6CF010895462F4770405D4193B3E061
S1130A200FD0C9F7F6CF462F4F70405D4A3318F008
S1130A30495D31FD4052419302D0A9F7EACFB4E0B9
S1130A40A6959795879577956795BA95C9F7009771
S1130A506105710508959B01AC010A2E0694579512
S1130A60479537952795BA95C9F7620F731F841F69
S10D0A70951FA01D0895F894FFCF10
S1130A7A2B323232323232323232323232000000E5
S1130A8A0001000000000000430200000000000210
S1130A9A0000000034020000000053797374656D8D
S1130AAA20686173206265656E20726573657420BF
S1130ABA627920746865205761746368646F67207B
S1130ACA74696D65722E2E2E2E2E2E2E0D0A0D0091
S1130ADA5374617274696E6720454550524F4D20B4
S1130AEA544553542E2E2E2E2E2E2E0D004C203DC0
S1130AFA2025630D0A56616C69642064617461205F
S1130B0A7265747269657665642066726F6D2045D4
S1130B1A4550524F4D0D0A004C203D2025630D0AC5
S1130B2A496E76616C6964206461746120726574CB
S1130B3A7269657665642066726F6D204545505208
S1130B4A4F4D0D0A0046696E697368656420454510
S1130B5A50524F4D20544553540D00546865206437
S1130B6A65766963652077696C6C206265207265B5
S1130B7A73657420696E2061626F757420382073FE
S1130B8A65636F6E64732E0D002564207365636F4D
S1090B9A6E642E0D0A003A
S9030000FC
